:100000000C9462000C948A000C948A000C948A0070
:100010000C948A000C948A000C948A000C948A0038
:100020000C948A000C948A000C948A000C948A0028
:100030000C948A000C948A000C948A000C948A0018
:100040000C94CF020C948A000C9498050C94CA0569
:100050000C948A000C948A000C948A000C948A00F8
:100060000C948A000C948A00000000080002010031
:100070000003040700000000000000000102040863
:100080001020408001020408102001020408102002
:10009000040404040404040402020202020203032E
:1000A00003030303000000002300260029000000D2
:1000B0000000250028002B0000000000240027007D
:1000C0002A00FA0511241FBECFEFD8E0DEBFCDBF56
:1000D00011E0A0E0B1E0ECE1F0E102C005900D928A
:1000E000A239B107D9F722E0A2E9B1E001C01D921F
:1000F000AF37B207E1F710E0C4ECD0E004C02297BC
:10010000FE010E94F907C23CD107C9F70E943E06D2
:100110000C940C080C940000DC01ED91FC91019012
:10012000F081E02D099482EE91E00E9453041816AC
:10013000190664F061E482EE91E00E948D066CE2A3
:1001400071E080E090E00E944803EDCF82EE91E004
:100150000E94530418161906F4F4609198017091E6
:1001600099014AE050E082EE91E00E9437076091E9
:100170009601709197014AE050E082EE91E00E9472
:10018000370760919401709195014AE050E082EE4A
:1001900091E00C943707089540ED57E060E070E07F
:1001A00082EA91E00E94360220E835E240E050E029
:1001B00062EE71E082EA91E00E94490282EA91E0F7
:1001C0000E94330265E071E08091D3019091D401E7
:1001D0000E948B066AE070E080E090E00E94480395
:1001E00041E060E082EA91E00E94B40226E040E84B
:1001F00055E260E070E082EE91E00E94360560E03A
:1002000082E00E94F1030C949300AF92BF92CF92D0
:10021000DF92EF92FF920F931F930E941903672BB7
:10022000682B692B41F40E94190362307105810526
:10023000910508F476C00E94190360939A017093A7
:100240009B0180939C0190939D0100919E011091D0
:100250009F012091A0013091A101601771078207D1
:10026000930740F460939E0170939F018093A001D7
:100270009093A10100919E0110919F012091A001F6
:100280003091A1016B017C01C01AD10AE20AF30A84
:10029000970186010A3F11052105310508F441C087
:1002A00060939E0170939F018093A0019093A101A0
:1002B00082EA91E00E94330267E171E08091D3010C
:1002C0009091D4010E948B066FE171E08091D3017F
:1002D0009091D4010E948B060E941903AB01BC01CE
:1002E0002AE030E08091D3019091D4010E943F0731
:1002F00061E271E08091D3019091D4010E948B065C
:1003000065E070E080E090E00E9448036AE070E001
:1003100080E090E00E94480361E082EA91E00E9460
:10032000760282EE91E00E945304181619060CF032
:1003300069C082EE91E00E946C04909393018093D7
:1003400092018EE00E94AB0397FD039695958795E9
:100350009595879590939901809398016AE070E054
:1003600080E090E00E94480381E00E94AB0397FD8B
:10037000039695958795959587959093970180938A
:10038000960182E00E942A04BC01882777FD8095AF
:10039000982F1F921F921F922FEF2F93A12CB12CF9
:1003A0006501E12CF12C8701E39420E030E0A90104
:1003B0000E94530770939501609394016091980196
:1003C0007091990182EE91E00E948C0060919601FB
:1003D0007091970182EE91E00E948C000F900F9037
:1003E0000F900F90609194017091950182EE91E0D1
:1003F0001F910F91FF90EF90DF90CF90BF90AF9043
:100400000C948C001F910F91FF90EF90DF90CF9094
:10041000BF90AF9008950F931F93CF93DF93EC019C
:10042000662359F00E94190369837A838B839C8326
:10043000DF91CF911F910F9108950E9419030981B7
:100440001A812B813C81601B710B820B930B6233F1
:1004500071058105910530F763E070E080E090E080
:100460000E944803EACF60E00C940B02FC0113AA3F
:1004700014AA15AA16AA1182128213821482411597
:1004800051056105710521F0CB01BA010C944803B7
:100490000895FB01BA01A901DC01D296FC93EE9309
:1004A000D19726E0CF010C9436051F93CF93DF93AD
:1004B000EC01162F6AE271E089A99AA90E948B06C5
:1004C0004AE050E0612F89A99AA90E944C0761E394
:1004D00071E089A99AA90E948B0662E370E080E02E
:1004E00090E0DF91CF911F910C9448031F93CF931D
:1004F000DF93EC01162F8D81882389F189A99AA9B0
:10050000DC01ED91FC910480F581E02D0995892BAA
:10051000A9F307C02637310519F12835310509F44B
:100520001D8289A99AA9DC01ED91FC910480F581D5
:10053000E02D09951816190694F489A99AA9DC01E9
:10054000ED91FC910680F781E02D09959C01332700
:1005500023363105F9F6612FCE010E94550283E65C
:10056000DF91CF911F9108950F931F93CF93DF9346
:100570001F92CDB7DEB78C01662349F081E0F80108
:10058000858360E0C80149830E9476024981F801B1
:1005900045830F90DF91CF911F910F9108951F9286
:1005A0000F920FB60F9211242F933F938F939F9327
:1005B000AF93BF938091DA019091DB01A091DC01B0
:1005C000B091DD013091D90123E0230F2D3720F4C4
:1005D0000196A11DB11D05C026E8230F0296A11D9D
:1005E000B11D2093D9018093DA019093DB01A09390
:1005F000DC01B093DD018091DE019091DF01A091DB
:10060000E001B091E1010196A11DB11D8093DE01D1
:100610009093DF01A093E001B093E101BF91AF910E
:100620009F918F913F912F910F900FBE0F901F9030
:1006300018952FB7F8946091DA017091DB018091E1
:10064000DC019091DD012FBF08953FB7F8948091B0
:10065000DE019091DF01A091E001B091E10126B5AA
:10066000A89B05C02F3F19F00196A11DB11D3FBFEA
:100670006627782F892F9A2F620F711D811D911D7A
:1006800042E0660F771F881F991F4A95D1F708959A
:10069000CF92DF92EF92FF92CF93DF936B017C01B9
:1006A0000E942503EB01C114D104E104F10489F097
:1006B0000E949A070E9425036C1B7D0B683E7340C5
:1006C00090F381E0C81AD108E108F108C851DC4F65
:1006D000EACFDF91CF91FF90EF90DF90CF90089518
:1006E000789484B5826084BD84B5816084BD85B50D
:1006F000826085BD85B5816085BDEEE6F0E08081D4
:1007000081608083E1E8F0E01082808182608083F4
:10071000808181608083E0E8F0E080818160808377
:10072000E1EBF0E0808184608083E0EBF0E08081A9
:1007300081608083EAE7F0E080818460808380814B
:1007400082608083808181608083808180688083F3
:100750001092C10008958E3008F08E50877020915D
:10076000040190E4299F90011124822B80937C0046
:1007700080917A00806480937A0080917A0086FD6F
:10078000FCCF809178002091790090E0922B089521
:10079000833081F028F4813099F08230A1F00895FF
:1007A0008730A9F08830B9F08430D1F4809180008E
:1007B0008F7D03C0809180008F77809380000895A3
:1007C00084B58F7702C084B58F7D84BD08958091F4
:1007D000B0008F7703C08091B0008F7D8093B00010
:1007E0000895CF93DF9390E0FC01E458FF4F2491EC
:1007F000FC01E057FF4F8491882349F190E0880F76
:10080000991FFC01E854FF4FA591B49182559F4F69
:10081000FC01C591D4919FB7611108C0F8948C91E7
:10082000209582238C93888182230AC0623051F400
:10083000F8948C91322F309583238C938881822B6E
:10084000888304C0F8948C91822B8C939FBFDF9196
:10085000CF910895CF93DF93282F30E0F901E85925
:10086000FF4F8491F901E458FF4FD491F901E0570B
:10087000FF4FC491CC2391F081110E94C803EC2F4B
:10088000F0E0EE0FFF1FEC55FF4FA591B4912C91B6
:100890002D2381E090E021F480E002C080E090E030
:1008A000DF91CF910895FC01818D228D90E0805CD5
:1008B0009F4F821B91098F7399270895FC01918D99
:1008C000828D981731F0828DE80FF11D858D90E0B3
:1008D00008958FEF9FEF0895FC01918D828D9817F9
:1008E00061F0828DDF01A80FB11D5D968C91928D14
:1008F0009F5F9F73928F90E008958FEF9FEF089511
:1009000080EF95E0892B49F080E090E0892B29F079
:100910000E94F00581110C9400000895FC01848D63
:10092000DF01A80FB11DA35ABF4F2C91848D90E019
:1009300001968F739927848FA689B7892C93A089F4
:10094000B1898C9180648C93938D848D981306C0AB
:100950000288F389E02D80818F7D80830895CF9375
:10096000DF93EC01888D8823C9F0EA89FB898081B7
:1009700085FD05C0A889B9898C9186FD0FC00FB689
:1009800007FCF5CF808185FFF2CFA889B9898C91CA
:1009900085FFEDCFCE010E948E04E7CFDF91CF918E
:1009A0000895CF92DF92FF920F931F93CF93DF931F
:1009B0001F92CDB7DEB76C0181E0D60158968C93BB
:1009C00058975B969C915B975C968C915C9798137B
:1009D00007C05096ED91FC915197808185FD2EC006
:1009E000F601038D10E00F5F1F4F0F731127F02EDC
:1009F000F601848DF81211C00FB607FCF9CFD601AD
:100A00005096ED91FC915197808185FFF1CFC60101
:100A100069830E948E046981EBCF838DE80FF11DFD
:100A2000E35AFF4F6083D6015B960C935B97529617
:100A3000ED91FC915397808180620CC0D60156964F
:100A4000ED91FC91579760835096ED91FC915197F1
:100A500080818064808381E090E00F90DF91CF916E
:100A60001F910F91FF90DF90CF900895BF92CF928A
:100A7000DF92EF92FF92CF93DF93EC016A017B014B
:100A8000B22EE889F98982E08083411581EE58070A
:100A900061057105A1F060E079E08DE390E0A701C8
:100AA00096010E94AB072150310941095109569521
:100AB000479537952795211580E1380798F0E88903
:100AC000F989108260E874E88EE190E0A701960150
:100AD0000E94AB07215031094109510956954795AC
:100AE00037952795EC85FD853083EE85FF8520833E
:100AF000188EEC89FD89B082EA89FB89808180614A
:100B00008083EA89FB89808188608083EA89FB8908
:100B1000808180688083EA89FB8980818F7D8083E2
:100B2000DF91CF91FF90EF90DF90CF90BF9008952D
:100B30001F920F920FB60F9211242F938F939F93B2
:100B4000EF93FF93E091F201F091F3018081E09146
:100B5000F801F091F90182FD12C090818091FB01B2
:100B60008F5F8F732091FC01821751F0E091FB01A0
:100B7000F0E0EE51FE4F958F8093FB0101C0808124
:100B8000FF91EF919F918F912F910F900FBE0F903A
:100B90001F9018951F920F920FB60F9211242F934A
:100BA0003F934F935F936F937F938F939F93AF93F5
:100BB000BF93EF93FF9382EE91E00E948E04FF912A
:100BC000EF91BF91AF919F918F917F916F915F91C5
:100BD0004F913F912F910F900FBE0F901F9018953E
:100BE00082EE91E00E94530421E0892B09F420E079
:100BF000822F08951092E5011092E40188EE93E0AF
:100C0000A0E0B0E08093E6019093E701A093E801B3
:100C1000B093E90186E891E09093E3018093E201CB
:100C200085EC90E09093EF018093EE0184EC90E0EE
:100C30009093F1018093F00180EC90E09093F301A8
:100C40008093F20181EC90E09093F5018093F401A0
:100C500082EC90E09093F7018093F60186EC90E0AF
:100C60009093F9018093F8011092FB011092FC011E
:100C70001092FD011092FE01089508950E947003E4
:100C80000E943D060E94CC00C0E8D4E00E9405010D
:100C90002097E1F30E948004F9CFCF92DF92EF9288
:100CA000FF920F931F93CF93DF937C016A01EB01B7
:100CB00000E010E00C151D0571F06991D701ED9170
:100CC000FC910190F081E02DC7010995892B19F065
:100CD0000F5F1F4FEFCFC801DF91CF911F910F9191
:100CE000FF90EF90DF90CF9008956115710581F02E
:100CF000DB010D900020E9F7AD0141505109461B81
:100D0000570BDC01ED91FC910280F381E02D0994F9
:100D100080E090E008950C947506DC01ED91FC9163
:100D20000190F081E02D09948F929F92AF92BF9233
:100D3000CF92DF92EF92FF920F931F93CF93DF93A7
:100D4000CDB7DEB7A1970FB6F894DEBF0FBECDBF0B
:100D50007C01C42EE52FCB01D22E19A221E02D1546
:100D600010F02AE0D22E8E010F5D1F4F8D2C912C9A
:100D7000A12CB12C6C2D7E2FA50194010E94AB07F4
:100D80008C2DD29E80191124015011098A3014F43F
:100D9000805D01C0895CF801808321153105410522
:100DA000510521F0C22EE32FCA01E4CFB801C701DB
:100DB0000E947506A1960FB6F894DEBF0FBECDBF98
:100DC000DF91CF911F910F91FF90EF90DF90CF9027
:100DD000BF90AF909F908F900895CF92DF92EF9247
:100DE000FF920F931F93CF93DF93EC016A017B0176
:100DF0002115310579F4E881F9810190F081E02D28
:100E0000642FDF91CF911F910F91FF90EF90DF90B2
:100E1000CF9009942A303105E9F477FF1AC06DE2CA
:100E20000E948D068C0144275527BA014C195D0993
:100E30006E097F092AE0CE010E949406800F911F5F
:100E4000DF91CF911F910F91FF90EF90DF90CF90A6
:100E500008952AE0B701A601CE01DF91CF911F913D
:100E60000F91FF90EF90DF90CF900C9494069A0131
:100E7000AB01662757FD6095762F0C94ED06211582
:100E8000310541F4DC01ED91FC910190F081E02D00
:100E9000642F09940C9494069A01462F50E060E068
:100EA00070E00C943F074F925F926F927F92AF92E7
:100EB000BF92CF92DF92EF92FF920F931F93CF9347
:100EC000DF93CDB7DEB729013A01621B730B840BA8
:100ED000950B29893A894B895C892A193B094C0968
:100EE0005D09298B3A8B4B8B5C8B9B01AC0169892B
:100EF0007A898B899C890E949B07E418F50806096A
:100F00001709A80197010E94CD072A0D3B1D4C1D12
:100F10005D1DCA01B901DF91CF911F910F91FF9023
:100F2000EF90DF90CF90BF90AF907F906F905F90E9
:100F30004F9008950895DB018F939F930E94EC07D3
:100F4000BF91AF91A29F800D911DA39F900DB29F65
:100F5000900D11240895A1E21A2EAA1BBB1BFD01BE
:100F60000DC0AA1FBB1FEE1FFF1FA217B307E40788
:100F7000F50720F0A21BB30BE40BF50B661F771FE0
:100F8000881F991F1A9469F76095709580959095C0
:100F90009B01AC01BD01CF010895052E97FB1EF406
:100FA00000940E94E40757FD07D00E94AB0707FC9E
:100FB00003D04EF40C94E40750954095309521955C
:100FC0003F4F4F4F5F4F0895909580957095619575
:100FD0007F4F8F4F9F4F08950E94FD07A59F900D53
:100FE000B49F900DA49F800D911D11240895EE0FC4
:100FF000FF1F0590F491E02D0994A29FB001B39FCB
:10100000C001A39F700D811D1124911DB29F700D11
:0C101000811D1124911D0895F894FFCF5C
:10101C000100000001564D4450565F317C315F5643
:10102C004D4450560D0A00564D4450455F31007CDE
:10103C00005F564D4450450D0A00564D4450435FD9
:10104C00005F564D4450430D0A004572726F723A60
:10105C0020417474656D707420746F2073657420F6
:10106C006120726561642D6F6E6C79207661726996
:10107C0061626C65206F7220646174612074797098
:10108C0065206E6F7420737570706F727465640D6B
:10109C000A0000000000D1044D0653046C045E04E9
:0210AC00AF048F
:00000001FF
